{
  "contractName": "Car",
  "abi": [
    {
      "anonymous": false,
      "inputs": [
        {
          "indexed": false,
          "name": "status",
          "type": "bool"
        },
        {
          "indexed": false,
          "name": "timestamp",
          "type": "uint256"
        },
        {
          "indexed": false,
          "name": "carId",
          "type": "string"
        }
      ],
      "name": "logCarAddedStatus",
      "type": "event"
    },
    {
      "constant": false,
      "inputs": [
        {
          "name": "_Id",
          "type": "string"
        }
      ],
      "name": "enroll",
      "outputs": [],
      "payable": false,
      "stateMutability": "nonpayable",
      "type": "function"
    },
    {
      "constant": false,
      "inputs": [
        {
          "name": "_Id",
          "type": "string"
        }
      ],
      "name": "get",
      "outputs": [
        {
          "name": "",
          "type": "string[]"
        }
      ],
      "payable": false,
      "stateMutability": "nonpayable",
      "type": "function"
    },
    {
      "constant": false,
      "inputs": [
        {
          "name": "_Id",
          "type": "string"
        },
        {
          "name": "_issue",
          "type": "string"
        }
      ],
      "name": "addAccident",
      "outputs": [
        {
          "name": "",
          "type": "uint256"
        }
      ],
      "payable": false,
      "stateMutability": "nonpayable",
      "type": "function"
    }
  ],
  "bytecode": "0x608060405234801561001057600080fd5b50610a2a806100206000396000f300608060405260043610610057576000357c0100000000000000000000000000000000000000000000000000000000900463ffffffff16806367b09cdb1461005c578063693ec85e146100855780636f059e73146100c2575b600080fd5b34801561006857600080fd5b50610083600480360361007e91908101906106d3565b6100ff565b005b34801561009157600080fd5b506100ac60048036036100a791908101906106d3565b610355565b6040516100b99190610878565b60405180910390f35b3480156100ce57600080fd5b506100e960048036036100e49190810190610714565b6104ac565b6040516100f691906108d8565b60405180910390f35b600080826040518082805190602001908083835b6020831015156101385780518252602082019150602081019050602083039250610113565b6001836020036101000a038019825116818451168082178552505050505050905001915050908152602001604051809103902060000154141561031557806000826040518082805190602001908083835b6020831015156101ae5780518252602082019150602081019050602083039250610189565b6001836020036101000a038019825116818451168082178552505050505050905001915050908152602001604051809103902060010190805190602001906101f79291906105d8565b506000816040518082805190602001908083835b602083101515610230578051825260208201915060208101905060208303925061020b565b6001836020036101000a03801982511681845116808217855250505050505090500191505090815260200160405180910390206003018060018154018082558091505090600182039060005260206000200160006040805190810160405280600581526020017f6a69776f6e000000000000000000000000000000000000000000000000000000815250909190915090805190602001906102d29291906105d8565b50507f59af746369c23f31df3bc0024539ab3dfbeee2a0e30599f3e7777f6876dc0374600142836040516103089392919061089a565b60405180910390a1610352565b7f59af746369c23f31df3bc0024539ab3dfbeee2a0e30599f3e7777f6876dc0374600042836040516103499392919061089a565b60405180910390a15b50565b60606000826040518082805190602001908083835b60208310151561038f578051825260208201915060208101905060208303925061036a565b6001836020036101000a0380198251168184511680821785525050505050509050019150509081526020016040518091039020600301805480602002602001604051908101604052809291908181526020016000905b828210156104a1578382906000526020600020018054600181600116156101000203166002900480601f01602080910402602001604051908101604052809291908181526020018280546001816001161561010002031660029004801561048d5780601f106104625761010080835404028352916020019161048d565b820191906000526020600020905b81548152906001019060200180831161047057829003601f168201915b5050505050815260200190600101906103e5565b505050509050919050565b6000806000846040518082805190602001908083835b6020831015156104e757805182526020820191506020810190506020830392506104c2565b6001836020036101000a03801982511681845116808217855250505050505090500191505090815260200160405180910390206003018054905090506000846040518082805190602001908083835b60208310151561055b5780518252602082019150602081019050602083039250610536565b6001836020036101000a03801982511681845116808217855250505050505090500191505090815260200160405180910390206003018390806001815401808255809150509060018203906000526020600020016000909192909190915090805190602001906105cc9291906105d8565b50508091505092915050565b828054600181600116156101000203166002900490600052602060002090601f016020900481019282601f1061061957805160ff1916838001178555610647565b82800160010185558215610647579182015b8281111561064657825182559160200191906001019061062b565b5b5090506106549190610658565b5090565b61067a91905b8082111561067657600081600090555060010161065e565b5090565b90565b600082601f830112151561069057600080fd5b81356106a361069e82610920565b6108f3565b915080825260208301602083018583830111156106bf57600080fd5b6106ca83828461099d565b50505092915050565b6000602082840312156106e557600080fd5b600082013567ffffffffffffffff8111156106ff57600080fd5b61070b8482850161067d565b91505092915050565b6000806040838503121561072757600080fd5b600083013567ffffffffffffffff81111561074157600080fd5b61074d8582860161067d565b925050602083013567ffffffffffffffff81111561076a57600080fd5b6107768582860161067d565b9150509250929050565b600061078b82610959565b808452602084019350836020820285016107a48561094c565b60005b848110156107dd5783830388526107bf838351610833565b92506107ca8261097a565b91506020880197506001810190506107a7565b508196508694505050505092915050565b6107f781610987565b82525050565b60006108088261096f565b80845261081c8160208601602086016109ac565b610825816109df565b602085010191505092915050565b600061083e82610964565b8084526108528160208601602086016109ac565b61085b816109df565b602085010191505092915050565b61087281610993565b82525050565b600060208201905081810360008301526108928184610780565b905092915050565b60006060820190506108af60008301866107ee565b6108bc6020830185610869565b81810360408301526108ce81846107fd565b9050949350505050565b60006020820190506108ed6000830184610869565b92915050565b6000604051905081810181811067ffffffffffffffff8211171561091657600080fd5b8060405250919050565b600067ffffffffffffffff82111561093757600080fd5b601f19601f8301169050602081019050919050565b6000602082019050919050565b600081519050919050565b600081519050919050565b600081519050919050565b6000602082019050919050565b60008115159050919050565b6000819050919050565b82818337600083830152505050565b60005b838110156109ca5780820151818401526020810190506109af565b838111156109d9576000848401525b50505050565b6000601f19601f83011690509190505600a265627a7a72305820f52bb68f2304302b098aa07236dbf546c88c44eca8045863e1ebf0cf743ed6cf6c6578706572696d656e74616cf50037",
  "source": "pragma solidity^0.4.18;\npragma experimental ABIEncoderV2;\ncontract Car{ \n    struct CarDetails{ \n        uint timestamp;\n        string carId;\n        address previousAdd;\n        string[] accident;\n    }\n   \n    mapping (string => CarDetails) cars;\n   \n   /*\n    function CarDetails(uint _timestamp, string _carId) public {\n        timestamp = _timestamp;\n        carId = _carId;\n    }\n    */\n    \n    // event1: check enroll status\n    event logCarAddedStatus(bool status, uint timestamp, string carId);\n    \n    //owner set with timestamp of block \n    function enroll(string _Id) public { \n        if(cars[_Id].timestamp == 0){ \n            cars[_Id].carId = _Id;\n            cars[_Id].accident.push(\"jiwon\");\n            logCarAddedStatus(true, block.timestamp, _Id); \n        }else{ \n            logCarAddedStatus(false, block.timestamp, _Id); \n            \n        } \n    }\n    /*\n    function get(string _Id) returns (string carId, uint timestamp, string accidents){\n        for(uint i = 0; i < cars[_Id].accident.length; i++){\n            accidents += cars[_Id].accident[i];\n        }\n        return (cars[_Id].carId, cars[_Id].timestamp, accidents); \n    }\n    */\n    function get(string _Id) returns (string[]){\n        return (cars[_Id].accident); \n    }\n\n    function addAccident(string _Id, string _issue) returns (uint) {\n        uint i = cars[_Id].accident.length;\n        cars[_Id].accident.push(_issue);\n        return i;\n    }\n}",
  "sourcePath": "C:\\Users\\JISU\\Desktop\\JISU\\01. 종단형PBL_2학기\\02.개발\\car\\contracts\\Car.sol",
  "compiler": {
    "name": "solc",
    "version": "0.4.24+commit.e67f0147.Emscripten.clang"
  },
  "schemaVersion": "2.0.1",
  "updatedAt": "2018-10-12T07:29:10.643Z"
}